:040000006AEF3EF075
:107CB0000A000C0EC16EC70E926E070E936E010E77
:107CC000946E000E956E000E966E8EEC3EF069EC92
:107CD0003FF0FDD7B00EF66E7C0EF76E000EF86E1C
:107CE0000900F5CF14F00900F5CF15F0000EF86E7D
:107CF000000159EF3EF001500302F3CF05F0F4CF3D
:107D000006F001500402F350062602500302F3501D
:107D1000062605C001F006C002F01200000E836EB8
:107D200014C001F015C002F0030E046E690E036E5C
:107D30007BEC3EF05A0E0124076E7E0E0220086E88
:107D4000000E0A6E0A0E096EEAEC3EF007C012F051
:107D500008C013F01200000E066E000E046E000E36
:107D6000036E10D0280E056E090E066F00F000F0AD
:107D7000062FB7EF3EF000F0052FB4EF3EF000F015
:107D8000034A042A0150035C02500458D8B0120080
:107D9000E9D703500410D8B418D0010E056E04D0F2
:107DA000D89003360436052A04AEFAD70350015C96
:107DB00004500258D8A004D00350015E0450025A67
:107DC000D89004320332052EF1D701C001F002C071
:107DD00002F01200000E0C6E000E0B6E09500A101D
:107DE000D8B41CD0010E0D6E04D0D89009360A36D6
:107DF0000D2A0AAEFAD7D8900B360C360950075C1C
:107E00000A500858D8A005D00950075E0A50085AF1
:107E10000B80D8900A3209320D2EEDD70BC007F037
:107E20000CC008F01200016E22D03F0E1200060EA8
:107E300012005B0E12004F0E1200660E12006D0E45
:107E400012007D0E1200070E12007F0E12006F0E40
:107E50001200770E12007C0E1200580E12005E0EF9
:107E60001200790E1200710E1200000E1200015065
:107E7000000AD8B4DAD7010AD8B4D9D7030AD8B4DB
:107E8000D8D7010AD8B4D7D7070AD8B4D6D7010AA9
:107E9000D8B4D5D7030AD8B4D4D7010AD8B4D3D725
:107EA0000F0AD8B4D2D7010AD8B4D1D7030AD8B4AC
:107EB000D0D7010AD8B4CFD7070AD8B4CED7010A91
:107EC000D8B4CDD7030AD8B4CCD7010AD8B4CBD70D
:107ED000CCD712C007F013C008F0030E0A6EE80EEC
:107EE000096EEAEC3EF0075013EC3FF0836E80849D
:107EF000000E026E030E016EABEC3EF08094030E9A
:107F0000046EE80E036E12C001F013C002F0C9EC5B
:107F10003EF001C007F002C008F0000E0A6E640EC9
:107F2000096EEAEC3EF0075013EC3FF0836E80865A
:107F3000000E026E030E016EABEC3EF08096030E57
:107F4000046EE80E036E12C001F013C002F0C9EC1B
:107F50003EF001C010F002C011F0000E046E640E7D
:107F6000036E10C001F011C002F0C9EC3EF001C078
:107F700007F002C008F0000E0A6E0A0E096EEAEC65
:107F80003EF0075013EC3FF0836E8088000E026EC7
:107F9000030E016EABEC3EF08098030E046EE80E0B
:107FA000036E12C001F013C002F0C9EC3EF001C034
:107FB00010F002C011F0000E046E640E036E10C0CB
:107FC00001F011C002F0C9EC3EF001C00EF002C099
:107FD0000FF00EC001F00FC002F0000E046E0A0E8A
:107FE000036EC9EC3EF0015013EC3FF0836E808AC3
:107FF000000E026E030E016EABEC3EF0809A120092
:020000040020DA
:08000000FFFFFFFFFFFFFFFF00
:020000040030CA
:0E000000210C191EFF8180FF0FC00FE00F4082
:00000001FF
