:0400000007EF00F016
:100008001982C1ED00F0E3EF01F017C00FF0106A9C
:10001800000E126E0A0E116E10EC01F00F506BEC10
:1000280000F0836E8088000E106E030E0F6E8AEC4F
:1000380001F0809817C00FF0106A000E126E0A0EB9
:10004800116E52EC01F00F506BEC00F0836E808A59
:10005800000E106E030E0F6E8AEC01F0809A0AD023
:10006800030E106EE80E0F6E8AEC01F081B002D01C
:100078001728176E81B00BD0F3D7030E106EE80E59
:100088000F6E8AEC01F081B202D01704176E81A2BC
:10009800F4D781B40AD0000E106E010E0F6E8AECF0
:1000A80001F081B402D0000E176E81B40AD0000EA0
:1000B800106E010E0F6E8AEC01F081B402D0090EA9
:1000C800176E17C00FF00A0ED4EC01F012000F6E75
:1000D80022D03F0E1200060E12005B0E12004F0EC9
:1000E8001200660E12006D0E12007D0E1200070E31
:1000F80012007F0E12006F0E1200770E12007C0E97
:100108001200580E12005E0E1200790E1200710EC7
:100118001200000E12000F50000AD8B4DAD7010AF4
:10012800D8B4D9D7030AD8B4D8D7010AD8B4D7D7FE
:10013800070AD8B4D6D7010AD8B4D5D7030AD8B491
:10014800D4D7010AD8B4D3D70F0AD8B4D2D7010A62
:10015800D8B4D1D7030AD8B4D0D7010AD8B4CFD7E6
:10016800070AD8B4CED7010AD8B4CDD7030AD8B471
:10017800CCD7010AD8B4CBD7CCD70600FACF01F038
:10018800FBCF02F0E9CF03F0EACF04F0E1CF05F0AE
:10019800E2CF06F0D9CF07F0DACF08F0F3CF09F0B5
:1001A800F4CF0AF0F6CF0BF0F7CF0CF0F8CF0DF044
:1001B800F5CF0EF0C70ED76E580ED66E1750185CD6
:1001C800D8B002D0828A01D0829A1828186E0A0EF6
:1001D8001818D8A402D0000E186EF2940EC0F5FFBD
:1001E8000DC0F8FF0CC0F7FF0BC0F6FF0AC0F4FF04
:1001F80009C0F3FF08C0DAFF07C0D9FF06C0E2FF55
:1002080005C0E1FF04C0EAFF03C0E9FF02C0FBFF2D
:1002180001C0FAFF19921100000E146E12AE06D03A
:10022800116C121ED8B0122A010E146E10AE06D030
:100238000F6C101ED8B0102A010E141A000E166E7C
:10024800000E156E11501210D8B41CD0010E136E8A
:1002580004D0D89011361236132A12AEFAD7D89095
:100268001536163611500F5C12501058D8A005D00C
:1002780011500F5E1250105A1580D8901232113258
:10028800132EEDD71450D8B404D0156C161ED8B060
:10029800162A15C00FF016C010F01200000E146ECA
:1002A80010AE06D00F6C101ED8B0102A010E146EB6
:1002B80012AE04D0116C121ED8B0122A11501210AE
:1002C800D8B418D0010E136E04D0D8901136123657
:1002D800132A12AEFAD711500F5C12501058D8A03A
:1002E80004D011500F5E1250105AD89012321132A9
:1002F800132EF1D71450D8B404D00F6C101ED8B0F8
:10030800102A0FC00FF010C010F01200000E146E6B
:10031800000E126E000E116E10D0280E136E090E0C
:10032800146F00F000F0142F96EF01F000F0132F77
:1003380093EF01F000F0114A122A0F50115C10508F
:100348001258D8B01200E9D7D596D580D582D58471
:10035800D59CD59AC70ED76E580ED66EF28EF28AF5
:10036800F294D58E9298929A000E836E938093821F
:10037800938493860A0EEBEC01F0176E12000C0EB4
:10038800C16E000E926E070E936E010E946E000EF3
:10039800956E000E966EA8EC01F009EC00F0FDD702
:1003A800106E10C0A9FF0FC0A8FFA684550EA76E37
:1003B800AA0EA76EA682A6B2FED7A6941200186A45
:1003C80019901992000EF86E0001C3EF01F00F6E3C
:0A03D8000FC0A9FFA680A850120074
:020000040020DA
:08000000FFFFFFFFFFFFFFFF00
:020000040030CA
:0E000000210C191EFF8180FF0FC00FE00F4082
:00000001FF
