:0400000038EF3FF0A6
:107E7000086A076A000EF86E000148EF3FF0000E36
:107E8000816E000E836E000E956E010E936E1200D1
:107E90000C0EC16EC70E926E070E936E010E946E9D
:107EA000000E956E000E966E3FEC3FF077EC3FF0C3
:107EB000FDD7000E066E000E046E000E036E10D08D
:107EC000280E056E090E066F00F000F0062F65EF14
:107ED0003FF000F0052F62EF3FF000F0034A042A64
:107EE0000150035C02500458D8B01200E9D7075083
:107EF000AAEC3FF0836E81B016D0000E026E010E28
:107F0000016E59EC3FF081B00ED008500CE1090E23
:107F1000075CD8B008D0010E0724076E000E0820B9
:107F2000086E81A0FED781B21200000E026E010E13
:107F3000016E59EC3FF081B2120007500810D8B41E
:107F40001200FF0E0724076EFF0E0820086E81B294
:107F50001200FDD7016E22D03F0E1200060E120055
:107F60005B0E12004F0E1200660E12006D0E120014
:107F70007D0E1200070E12007F0E12006F0E12000F
:107F8000770E12007C0E1200580E12005E0E1200C8
:107F9000790E1200710E1200000E12000150000A3C
:107FA000D8B4DAD7010AD8B4D9D7030AD8B4D8D705
:107FB000010AD8B4D7D7070AD8B4D6D7010AD8B49B
:107FC000D5D7030AD8B4D4D7010AD8B4D3D70F0A67
:107FD000D8B4D2D7010AD8B4D1D7030AD8B4D0D7ED
:107FE000010AD8B4CFD7070AD8B4CED7010AD8B47B
:107FF000CDD7030AD8B4CCD7010AD8B4CBD7CCD7C5
:020000040020DA
:08000000FFFFFFFFFFFFFFFF00
:020000040030CA
:0E000000210C191EFF8180FF0FC00FE00F4082
:00000001FF
