:04000000C4EF3CF01D
:10798800226A216A206A1F6A000EF86E0001E2EF7F
:107998003CF0330EAF6EAC84AC9CAC8AAC98AB8E2A
:1079A800AB9CAB88120094940C0EBD6ECA849E9258
:1079B8009EA2FED79E929EB21200FDD70C0EC16EFB
:1079C800C30E926E070E936E010E946E000E956EA6
:1079D800000E966EF3EC3CF0D5EC3EF0FDD7948E9D
:1079E800130E106E880E0F6E6AEC3EF0D7EC3CF06A
:1079F800CDEC3CF0000E956E000E936E000E836E7B
:107A0800000E816E000EBBEC3DF01200000E066EFB
:107A1800000E046E000E036E10D0280E056E090EBF
:107A2800066F00F000F0062F16EF3DF000F0052F6E
:107A380013EF3DF000F0034A042A0150035C0250A2
:107A48000458D8B01200E9D7000E0A6E000E096E6D
:107A5800ABB402D0ABA20DD0AB98AB880AD0000E65
:107A6800026E140E016E0AEC3DF0140E0926000E8B
:107A78000A220750095C08500A58D8A004D00750B9
:107A88000810D8A402D09EAAEAD79EAA02D0AE5067
:107A98001200A50E1200000E096E000E0A6E000EEE
:107AA8000B6E000E0C6E01A008D00550092606507A
:107AB8000A2207500B2208500C22D89005360636A9
:107AC80007360836D89004320332023201320150A8
:107AD800021003100410D8A4E6D709C001F00AC0A8
:107AE80002F00BC003F00CC004F01200000E156E7B
:107AF800000E166E000E176E000E186E1150121042
:107B080013101410D8B42AD0010E196E06D0D890CC
:107B18001136123613361436192A14AEF8D7D890FF
:107B2800153616361736183611500D5C12500E5889
:107B380013500F5814501058D8A009D011500D5E8A
:107B480012500E5A13500F5A1450105A1580D890CC
:107B58001432133212321132192EE1D715C00DF03A
:107B680016C00EF017C00FF018C010F012001C6EEF
:107B78001C50016E026A036A046ACB501A6E1B6AB3
:107B8800D8901A361B36D8901A361B36030E1A129E
:107B9800000E1B121AC005F01BC006F0000E06BE30
:107BA800FF0E076E086E4FEC3DF001C00DF002C0ED
:107BB8000EF003C00FF004C010F0FF0E116E000E9F
:107BC800126E000E136E000E146E7AEC3DF00DC0AE
:107BD8001DF00EC01EF01DC01AF01EC01BF0D8907C
:107BE8001B321A32D8901B321A321A50BE6E1DC080
:107BF8001AF0030E1A161A38F00B0C09BD6E120093
:107C0800000E0A6E08AE0AD0081E071E061E056C76
:107C1800000E062207220822010E0A6E04AE0AD0C0
:107C2800041E031E021E016C000E022203220422FF
:107C3800010E0A1A000E0B6E000E0C6E000E0D6E71
:107C4800000E0E6E0550061007100810D8B42AD082
:107C5800010E096E06D0D890053606360736083666
:107C6800092A08AEF8D7D8900B360C360D360E36E2
:107C78000550015C06500258075003580850045834
:107C8800D8A009D00550015E0650025A0750035A81
:107C98000850045A0B80D890083207320632053251
:107CA800092EE1D70A50D8B408D00E1E0D1E0C1E9E
:107CB8000B6C000E0C220D220E220BC001F00CC022
:107CC80002F00DC003F00EC004F01200000EBD6EED
:107CD80094848294000EBE6ECA94000E016E120E39
:107CE800026E7A0E036E000E046E0F50116E105065
:107CF800126E136A146A020ED890113612361336B1
:107D08001436E82EF9D711C005F012C006F013C0DA
:107D180007F014C008F004EC3EF001C015F002C0F2
:107D280016F01604D8B005D0FC0ECA1615C0CBFF45
:107D380033D015C011F016C012F0D890123211329B
:107D4800D890123211321204D8B013D0CA50FC0B9A
:107D58000109CA6E020E1524116E000E1620126E4D
:107D6800D89012321132D890123211321150CB6E93
:107D780013D0080E1524116E000E1620126E040E74
:107D8800136ED89012321132132EFBD71150CB6ECE
:107D9800CA50FC0B0209CA6ECA96CA98CA9ACA9CEB
:107DA800120019D1000E086E000E076E28EC3DF087
:107DB800226E000E086E000E076E28EC3DF0216E54
:107DC80022502124BBEC3DF01200838012008382F4
:107DD8001200838412008386120083881200838A2B
:107DE8001200838C1200838E120083808382838426
:107DF80083868388838A838C838E1200000E086EA4
:107E0800000E076E28EC3DF0300AD8B4DED7010A20
:107E1800D8B4DDD7030AD8B4DCD7010AD8B4DBD785
:107E2800070AD8B4DAD7010AD8B4D9D7030AD8B41C
:107E3800D8D7010AD8B4D7D7430AD8A41200D5D7BF
:107E480081801200818212008184120081861200D2
:107E580081881200818A1200818C1200818E1200A2
:107E680081808182818481868188818A818C818ECA
:107E78001200000E086E000E076E28EC3DF0300A66
:107E8800D8B4DED7010AD8B4DDD7030AD8B4DCD712
:107E9800010AD8B4DBD7070AD8B4DAD7010AD8B4AC
:107EA800D9D7030AD8B4D8D7010AD8B4D7D7430A40
:107EB800D8A41200D5D7000E086E000E076E28EC65
:107EC8003DF0420AD8B4D5D7060AD8A4120096D7EE
:107ED80083901200839212008394120083961200FA
:107EE80083981200839A1200839C1200839E1200CA
:107EF80083908392839483968398839A839C839EAA
:107F08001200000E086E000E076E28EC3DF0300AD5
:107F1800D8B4DED7010AD8B4DDD7030AD8B4DCD781
:107F2800010AD8B4DBD7070AD8B4DAD7010AD8B41B
:107F3800D9D7030AD8B4D8D7010AD8B4D7D7430AAF
:107F4800D8A41200D5D78190120081921200819492
:107F580012008196120081981200819A1200819C69
:107F68001200819E1200819081928194819681985D
:107F7800819A819C819E1200000E086E000E076E89
:107F880028EC3DF0300AD8B4DED7010AD8B4DDD7E2
:107F9800030AD8B4DCD7010AD8B4DBD7070AD8B4A7
:107FA800DAD7010AD8B4D9D7030AD8B4D8D7010A7E
:107FB800D8B4D7D7430AD8A41200D5D7000E086E74
:107FC800000E076E28EC3DF0420AD8B4D5D7060A51
:107FD800D8A4120096D7000E086E000E076E28EC83
:107FE8003DF0300AD8B4EAD7010AD8B464D7520AA7
:087FF800D8B4D8D6170A120014
:020000040020DA
:08000000FFFFFFFFFFFFFFFF00
:020000040030CA
:0E000000210C191EFF8380FF0FC00FE00F4080
:00000001FF
