:0400000007EF00F016
:10000800178209ED00F0B5EF00F00600FACF07F00F
:10001800FBCF08F0E9CF09F0EACF0AF0E1CF0BF007
:10002800E2CF0CF0D9CF0DF0DACF0EF0F3CF0FF00E
:10003800F4CF10F0F6CF11F0F7CF12F0F8CF13F09D
:10004800F5CF14F0F2A210D0162AFA0E1618D8A47A
:100058000AD0000E166E8380000E026E050E016E29
:1000680086EC00F08390F2949EA010D0152AC80E5A
:100078001518D8A40AD0000E156E8382000E026EE1
:10008800050E016E86EC00F083929E9014C0F5FF79
:1000980013C0F8FF12C0F7FF11C0F6FF10C0F4FF3D
:1000A8000FC0F3FF0EC0DAFF0DC0D9FF0CC0E2FF8E
:1000B8000BC0E1FF0AC0EAFF09C0E9FF08C0FBFF67
:1000C80007C0FAFF17921100D59AD596D584D58224
:1000D800D580D59CD768E10ED66EF294CD90CD929E
:1000E800CD8ACD88F60ECF6E3C0ECE6E9E90F28EE7
:1000F800F28CF28A9D80D58ECD80000E836E000E24
:10010800816E1200000E066E000E046E000E036E65
:1001180010D0280E056E090E066F00F000F0062FAD
:1001280092EF00F000F0052F8FEF00F000F0034A87
:10013800042A0150035C02500458D8B01200E9D7D1
:100148000C0EC16E000E926E070E936E010E946E29
:10015800000E956E000E966E68EC00F0BCEC00F098
:10016800FDD7166A156A179017920001A4EF00F0E0
:02017800120073
:020000040020DA
:08000000FFFFFFFFFFFFFFFF00
:020000040030CA
:0E000000210C191EFF8180FF0FC00FE00F4082
:00000001FF
