:0400000007EF00F016
:100008001D8291ED00F0ECEF01F01BC00FF0106ABB
:10001800000E126E0A0E116E3EEC01F00F50E8EC65
:1000280000F0836E1CB002D0839E01D0838E808442
:10003800000E106E030E0F6EB8EC01F080941BC01A
:100048000FF0106A000E126E0A0E116E80EC01F0AD
:100058000F50E8EC00F0836E1CB002D0839E01D0F4
:10006800838E8086000E106E030E0F6EB8EC01F0C2
:1000780080961AC00FF0106A000E126E0A0E116EEA
:100088003EEC01F00F50E8EC00F0836E1CB002D09B
:10009800839E01D0838E8088000E106E030E0F6E33
:1000A800B8EC01F080981AC00FF0106A000E126EBA
:1000B8000A0E116E80EC01F00F50E8EC00F0836E30
:1000C8001CB002D0839E01D0838E808A000E106EF1
:1000D800030E0F6EB8EC01F0809A81B014D019505D
:1000E800D8B411D0000E106E060E0F6EB8EC01F0E9
:1000F80081B009D0000E196ECA74CAA402D0010ECC
:1001080001D0000E1C6E81B205D0000E1A6E000ED2
:100118001B6E1200010E196E12000600FACF01F0D4
:10012800FBCF02F0E9CF03F0EACF04F0E1CF05F00E
:10013800E2CF06F0D9CF07F0DACF08F0F3CF09F015
:10014800F4CF0AF0F6CF0BF0F7CF0CF0F8CF0DF0A4
:10015800F5CF0EF09EA21AD09E92174A182A4D0E7D
:1001680017181810D8A412D01A2A000E186E000EEC
:10017800176E3C0E1A18D8A409D0000E1A6E1B2A46
:100188003C0E1B18D8A402D0000E1B6E0EC0F5FF43
:100198000DC0F8FF0CC0F7FF0BC0F6FF0AC0F4FF54
:1001A80009C0F3FF08C0DAFF07C0D9FF06C0E2FFA5
:1001B80005C0E1FF04C0EAFF03C0E9FF02C0FBFF7E
:1001C80001C0FAFF1D9211000F6E22D03F0E1200DF
:1001D800060E12005B0E12004F0E1200660E120081
:1001E8006D0E12007D0E1200070E12007F0E120017
:1001F8006F0E1200770E12007C0E1200580E1200BD
:100208005E0E1200790E1200710E1200000E12001E
:100218000F50000AD8B4DAD7010AD8B4D9D7030ADC
:10022800D8B4D8D7010AD8B4D7D7070AD8B4D6D7FC
:10023800010AD8B4D5D7030AD8B4D4D7010AD8B498
:10024800D3D70F0AD8B4D2D7010AD8B4D1D7030A62
:10025800D8B4D0D7010AD8B4CFD7070AD8B4CED7E4
:10026800010AD8B4CDD7030AD8B4CCD7010AD8B478
:10027800CBD7CCD7000E146E12AE06D0116C121E5E
:10028800D8B0122A010E146E10AE06D00F6C101ED4
:10029800D8B0102A010E141A000E166E000E156E34
:1002A80011501210D8B41CD0010E136E04D0D8907F
:1002B80011361236132A12AEFAD7D89015361636DA
:1002C80011500F5C12501058D8A005D011500F5E75
:1002D8001250105A1580D89012321132132EEDD7C1
:1002E8001450D8B404D0156C161ED8B0162A15C0F0
:1002F8000FF016C010F01200000E146E10AE06D0EB
:100308000F6C101ED8B0102A010E146E12AE04D055
:10031800116C121ED8B0122A11501210D8B418D06D
:10032800010E136E04D0D89011361236132A12AE6D
:10033800FAD711500F5C12501058D8A004D01150A1
:100348000F5E1250105AD89012321132132EF1D774
:100358001450D8B404D00F6C101ED8B0102A0FC097
:100368000FF010C010F01200000E146E000E126E86
:10037800000E116E10D0280E136E090E146F00F0C7
:1003880000F0142FC4EF01F000F0132FC1EF01F0BB
:1003980000F0114A122A0F50115C10501258D8B0B0
:1003A8001200E9D79E92CA82CA80CA8CCA8ACA88B1
:1003B800CA86000ECC6E640ECB6EF28EF28C9D82D5
:1003C800CA84929492969298929A000E806E120025
:1003D800240EF66E040EF76E000EF86E0900F5CFC7
:1003E8001CF01B6A1A6A196A186A176A1D901D920E
:1003F800000EF86E000101EF02F00C0EC16EC70E80
:10040800926E070E936E010E946E000E956E000E9E
:0D041800966ED6EC01F009EC00F0FDD70166
:020000040020DA
:08000000FFFFFFFFFFFFFFFF00
:020000040030CA
:0E000000210C191EFF8180FF0FC00FE00F4082
:00000001FF
